AX51 MACRO ASSEMBLER  FLASHTABLE                                                            03/10/20 10:49:36 PAGE     1


MACRO ASSEMBLER AX51 V3.12.0.0
OBJECT MODULE PLACED IN .\EFM8LB\FlashTable.OBJ
ASSEMBLER INVOKED BY: c:\SiliconLabs\SimplicityStudio\v4\developer\toolchains\keil_8051\9.53\BIN\AX51.exe D:\Luxshare_OE
                      T\公司專案_FW\SFP28\FW\SFP28_Gen2\V0300\OET_SFP28_SR_Gen2_Macom\EFM8LB\FlashTable.A51 ERRORPRINT S
                      ET(SMALL,SILABS_STARTUP=1) DEBUG MACRO NOMOD51 INCDIR(D:\Luxshare_OET\公司專案_FW\SFP28\FW\SFP28_G
                      en2\V0300\OET_SFP28_SR_Gen2_Macom\inc;C:/SiliconLabs/SimplicityStudio/v4/developer/sdks/8051/v4.0.
                      7//Device/shared/si8051base;C:/SiliconLabs/SimplicityStudio/v4/developer/sdks/8051/v4.0.7//Device/
                      EFM8LB1/inc) PRINT(.\EFM8LB\FlashTable.lst) COND SYMBOLS PAGEWIDTH(120) PAGELENGTH(65) OBJECT(.\EFM8LB\FlashTable.OBJ) 

LOC    OBJ             LINE     SOURCE

                          1     
                          2     
                          3     
                          4     
                          5     
                          6     
                          7     
                          8     
                          9     
                         10     
                         11     
                         12     
                         13     
                         14     
                         15     
                         16     
                         17     
                         18     
00C800                   19             CSEG    AT      0xC800
                         20         PUBLIC          FS_A0_Table
                         21     
00C800                   22     FS_A0_Table:
                         23                             
00C800 03                24                             DB 0x03                                                         
                                                        
00C801 00                25                             DB 0x00                                                         
                                                
00C802 23                26                             DB 0x23                                          
00C803 00000000          27                             DB 0x00,0x00,0x00,0x00,0x00,0x00,0x00,0x00       
00C807 00000000                 
00C80B 05                28                             DB 0x05                                          
00C80C FF                29                 DB 0xFF                                          
00C80D 00                30                 DB 0x00                                          
00C80E 00                31                 DB 0x00                                                                     
                                                
00C80F 00                32                 DB 0x00                                                                     
                                        
00C810 00                33                 DB 0x00                                          
00C811 00                34                 DB 0x00                                          
00C812 00                35                 DB 0x00                                                                     
                                                
00C813 00                36                 DB 0x00                                          
00C814 4C555853          37                 DB 0x4C,0x55,0x58,0x53,0x48,0x41,0x52,0x45       
00C818 48415245                 
00C81C 2D494354          38                 DB 0x2D,0x49,0x43,0x54,0x20,0x20,0x20,0x20       
00C820 20202020                 
00C824 01                39                 DB 0x01                                          
00C825 3C18A0            40                 DB 0x3C,0x18,0xA0                                
00C828 00000000          41                 DB 0x00,0x00,0x00,0x00,0x00,0x00,0x00,0x00       
00C82C 00000000                 
AX51 MACRO ASSEMBLER  FLASHTABLE                                                            03/10/20 10:49:36 PAGE     2

00C830 00000000          42                 DB 0x00,0x00,0x00,0x00,0x00,0x00,0x00,0x00       
00C834 00000000                 
00C838 00000000          43                 DB 0x00,0x00,0x00,0x00                           
00C83C 0000              44                             DB 0x00,0x00                                     
00C83E 00                45                 DB 0x00                                          
00C83F 00                46                 DB 0x00                                                                     
                                        
00C840 0000              47                 DB 0x00,0x00                                                                
                                        
00C842 00                48                             DB 0x00                                                         
                                                        
00C843 00                49                             DB 0x00                                                         
                                                        
00C844 00000000          50                             DB 0x00,0x00,0x00,0x00,0x00,0x00,0x00,0x00       
00C848 00000000                 
00C84C 00000000          51                             DB 0x00,0x00,0x00,0x00,0x00,0x00,0x00,0x00       
00C850 00000000                 
00C854 00000000          52                             DB 0x00,0x00,0x00,0x00,0x00,0x00,0x00,0x00       
00C858 00000000                 
00C85C 00                53                             DB 0x00                                          
00C85D 00                54                             DB 0x00                                          
00C85E 00                55                             DB 0x00                                          
00C85F 00                56                             DB 0x00                                          
00C860 00000000          57                             DB 0x00,0x00,0x00,0x00,0x00,0x00,0x00,0x00       
00C864 00000000                 
00C868 00000000          58                             DB 0x00,0x00,0x00,0x00,0x00,0x00,0x00,0x00       
00C86C 00000000                 
00C870 00000000          59                             DB 0x00,0x00,0x00,0x00,0x00,0x00,0x00,0x00       
00C874 00000000                 
00C878 00000000          60                             DB 0x00,0x00,0x00,0x00,0x00,0x00,0x00,0x00       
00C87C 00000000                 
                         61     
00CA00                   62             CSEG    AT      0xCA00
                         63         PUBLIC          FS_A2_Table
                         64     
00CA00                   65     FS_A2_Table:
                         66                             
00CA00 0000              67                             DW 0x0000                                                       
                                                        
00CA02 0000              68                             DW 0x0000                                                       
                                                
00CA04 0000              69                             DW 0x0000                                                       
                                                        
00CA06 0000              70                             DW 0x0000                                                       
                                                
00CA08 0000              71                             DW 0x0000                                                       
                                                        
00CA0A 0000              72                             DW 0x0000                                                       
                                                
00CA0C 0000              73                             DW 0x0000                                                       
                                                        
00CA0E 0000              74                             DW 0x0000                                                       
                                                
00CA10 0000              75                             DW 0x0000                                                       
                                                        
00CA12 0000              76                             DW 0x0000                                                       
                                                
00CA14 0000              77                             DW 0x0000                                                       
                                                        
00CA16 0000              78                             DW 0x0000                                                       
                                                
00CA18 0000              79                             DW 0x0000                                                       
                                                        
AX51 MACRO ASSEMBLER  FLASHTABLE                                                            03/10/20 10:49:36 PAGE     3

00CA1A 0000              80                             DW 0x0000                                                       
                                                
00CA1C 0000              81                             DW 0x0000                                                       
                                                        
00CA1E 0000              82                             DW 0x0000                                                       
                                                
00CA20 0000              83                             DW 0x0000                                                       
                                                        
00CA22 0000              84                             DW 0x0000                                                       
                                                
00CA24 0000              85                             DW 0x0000                                                       
                                                        
00CA26 0000              86                             DW 0x0000                                                       
                                                
00CA28 0000              87                             DW 0x0000                                                       
                                                        
00CA2A 0000              88                             DW 0x0000                                                       
                                                
00CA2C 0000              89                             DW 0x0000                                                       
                                                        
00CA2E 0000              90                             DW 0x0000                                                       
                                                
00CA30 0000              91                             DW 0x0000                                                       
                                                        
00CA32 0000              92                             DW 0x0000                                                       
                                                
00CA34 0000              93                             DW 0x0000                                                       
                                                        
00CA36 0000              94                             DW 0x0000                                                       
                                                
00CA38 0000              95                             DW 0x0000,0x0000                                                
                                    
00CA3A 0000                     
00CA3C 0000              96                             DW 0x0000,0x0000                                                
                                    
00CA3E 0000                     
00CA40 0000              97                             DW 0x0000,0x0000                                                
                                    
00CA42 0000                     
00CA44 0000              98                             DW 0x0000,0x0001                                                
                                    
00CA46 0001                     
00CA48 0000              99                             DW 0x0000,0x0000                                                
                                    
00CA4A 0000                     
00CA4C 0001             100                             DW 0x0001                                                       
                                                
00CA4E 0000             101                             DW 0x0000                                                       
                                                
00CA50 0001             102                             DW 0x0001                                                       
                                                
00CA52 0000             103                             DW 0x0000                                                       
                                                
00CA54 0001             104                             DW 0x0001                                                       
                                                
00CA56 0000             105                             DW 0x0000                                                       
                                                
00CA58 0001             106                             DW 0x0001                                                       
                                                
00CA5A 0000             107                             DW 0x0000                                                       
                                                
00CA5C 000000           108                             DB 0x00,0x00,0x00                                               
                                                
AX51 MACRO ASSEMBLER  FLASHTABLE                                                            03/10/20 10:49:36 PAGE     4

00CA5F 00               109                             DB 0x00                                          
00CA60 00000000         110                             DB 0x00,0x00,0x00,0x00,0x00,0x00,0x00,0x00       
00CA64 00000000                 
00CA68 00000000         111                             DB 0x00,0x00,0x00,0x00,0x00,0x00                 
00CA6C 0000                     
00CA6E 00               112                             DB 0x00                                          
00CA6F 00               113                     DB 0x00                                                                 
                                                
00CA70 0000             114                     DW 0x0000                                        
00CA72 6633             115                     DW 0x6633                                                               
                                                
00CA74 0000             116                     DW 0x0000                                                               
                                                
00CA76 00               117                     DB 0x00                                                                 
                                                
00CA77 00               118                     DB 0x00                                          
00CA78 00000000         119                     DB 0x00,0x00,0x00,0x00,0x00,0x00,0x00            
00CA7C 000000                   
00CA7F 00               120                     DB 0x00                                                                 
                                                
                        121     
                        122     
00D000                  123             CSEG    AT      0xD000
                        124         PUBLIC          FS_37645_Table
                        125     
00D000                  126     FS_37645_Table:
                        127     
00D000 00               128                             DB 0x00                                          
00D001 00               129                             DB 0x00                                          
00D002 00               130                             DB 0x00                                          
00D003 00               131                             DB 0x00                                                         
                                                        
00D004 00               132                             DB 0x00                                          
00D005 00               133                             DB 0x00                                                         
                                                        
00D006 00000000         134                             DB 0x00,0x00,0x00,0x00,0x00                                     
                                        
00D00A 00                       
00D00B 00               135                             DB 0x00                                                         
                                                        
00D00C 80               136                             DB 0x80                                                         
                                                        
00D00D 00               137                             DB 0x00                                                         
                                                        
00D00E 00               138                             DB 0x00                                                         
                                                        
00D00F 4A               139                             DB 0x4A                                                         
                                                        
00D010 00               140                             DB 0x00                                                         
                                                        
00D011 30               141                             DB 0x30                                                         
                                                        
00D012 0F               142                             DB 0x0F                                                         
                                                        
00D013 01               143                             DB 0x01                                                         
                                                        
00D014 05               144                             DB 0x05                                                         
                                                        
00D015 01               145                             DB 0x01                                                         
                                                        
00D016 1E               146                             DB 0x1E                                                         
                                                        
00D017 60               147                             DB 0x60                                                         
AX51 MACRO ASSEMBLER  FLASHTABLE                                                            03/10/20 10:49:36 PAGE     5

                                                        
00D018 00               148                             DB 0x00                                          
00D019 00               149                             DB 0x00                                                         
                                                        
00D01A 10               150                             DB 0x10                                                         
                                                        
00D01B 44               151                             DB 0x44                                                         
                                                        
00D01C 00               152                             DB 0x00                                                         
                                                        
00D01D 00               153                             DB 0x00                                                         
                                                        
00D01E 00               154                             DB 0x00                                                         
                                                        
00D01F FF               155                             DB 0xFF                                          
00D020 FFFFFFFF         156                             DB 0xFF,0xFF,0xFF,0xFF,0xFF,0xFF,0xFF,0xFF       
00D024 FFFFFFFF                 
00D028 FFFFFFFF         157                             DB 0xFF,0xFF,0xFF,0xFF,0xFF,0xFF,0xFF,0xFF       
00D02C FFFFFFFF                 
00D030 FFFFFFFF         158                             DB 0xFF,0xFF,0xFF,0xFF,0xFF,0xFF,0xFF,0xFF       
00D034 FFFFFFFF                 
00D038 FFFFFFFF         159                             DB 0xFF,0xFF,0xFF,0xFF,0xFF,0xFF,0xFF,0xFF       
00D03C FFFFFFFF                 
00D040 FFFFFFFF         160                             DB 0xFF,0xFF,0xFF,0xFF,0xFF,0xFF,0xFF,0xFF       
00D044 FFFFFFFF                 
00D048 FFFFFFFF         161                             DB 0xFF,0xFF,0xFF,0xFF,0xFF,0xFF,0xFF,0xFF       
00D04C FFFFFFFF                 
00D050 FFFFFFFF         162                             DB 0xFF,0xFF,0xFF,0xFF,0xFF,0xFF,0xFF,0xFF       
00D054 FFFFFFFF                 
00D058 FFFFFFFF         163                             DB 0xFF,0xFF,0xFF,0xFF,0xFF,0xFF,0xFF,0xFF       
00D05C FFFFFFFF                 
00D060 FFFFFFFF         164                             DB 0xFF,0xFF,0xFF,0xFF,0xFF,0xFF,0xFF,0xFF       
00D064 FFFFFFFF                 
00D068 FFFFFFFF         165                             DB 0xFF,0xFF,0xFF,0xFF,0xFF,0xFF,0xFF,0xFF       
00D06C FFFFFFFF                 
00D070 FFFFFFFF         166                             DB 0xFF,0xFF,0xFF,0xFF,0xFF,0xFF,0xFF,0xFF       
00D074 FFFFFFFF                 
00D078 00000000         167                             DB 0x00,0x00,0x00,0x00,0x00,0x00,0x00,0x00       
00D07C 00000000                 
                        168     
00D200                  169             CSEG    AT      0xD200
                        170         PUBLIC          FS_37644_Table
                        171     
00D200                  172     FS_37644_Table:
                        173     
00D200 00               174                             DB 0x00                                          
00D201 00               175                             DB 0x00                                          
00D202 00               176                             DB 0x00                                          
00D203 00               177                             DB 0x00                                          
00D204 00               178                             DB 0x00                                                         
                                                        
00D205 00000000         179                             DB 0x00,0x00,0x00,0x00                                          
                                        
00D209 00               180                             DB 0x00                                                         
                                                        
00D20A C0               181                             DB 0xC0                                                         
                                                        
00D20B 00               182                             DB 0x00                                                         
                                                        
00D20C 00               183                             DB 0x00                                                         
                                                        
00D20D 4A               184                             DB 0x4A                                                         
                                                        
AX51 MACRO ASSEMBLER  FLASHTABLE                                                            03/10/20 10:49:36 PAGE     6

00D20E 00               185                             DB 0x00                                                         
                                                        
00D20F 00               186                             DB 0x00                                                         
                                                        
00D210 00               187                             DB 0x00                                                         
                                                        
00D211 80               188                             DB 0x80                                                         
                                                        
00D212 2C               189                             DB 0x2C                                                         
                                                        
00D213 00               190                             DB 0x00                                                         
                                                        
00D214 00               191                             DB 0x00                                                         
                                                        
00D215 32               192                             DB 0x32                                                         
                                                        
00D216 07               193                             DB 0x07                                                         
                                                        
00D217 12               194                             DB 0x12                                                         
                                                        
00D218 00               195                             DB 0x00                                                         
                                                        
00D219 00000000         196                             DB 0x00,0x00,0x00,0x00,0x00,0x00,0x00            
00D21D 000000                   
00D220 FFFFFFFF         197                             DB 0xFF,0xFF,0xFF,0xFF,0xFF,0xFF,0xFF,0xFF       
00D224 FFFFFFFF                 
00D228 FFFFFFFF         198                             DB 0xFF,0xFF,0xFF,0xFF,0xFF,0xFF,0xFF,0xFF       
00D22C FFFFFFFF                 
00D230 FFFFFFFF         199                             DB 0xFF,0xFF,0xFF,0xFF,0xFF,0xFF,0xFF,0xFF       
00D234 FFFFFFFF                 
00D238 FFFFFFFF         200                             DB 0xFF,0xFF,0xFF,0xFF,0xFF,0xFF,0xFF,0xFF       
00D23C FFFFFFFF                 
00D240 FFFFFFFF         201                             DB 0xFF,0xFF,0xFF,0xFF,0xFF,0xFF,0xFF,0xFF       
00D244 FFFFFFFF                 
00D248 FFFFFFFF         202                             DB 0xFF,0xFF,0xFF,0xFF,0xFF,0xFF,0xFF,0xFF       
00D24C FFFFFFFF                 
00D250 FFFFFFFF         203                             DB 0xFF,0xFF,0xFF,0xFF,0xFF,0xFF,0xFF,0xFF       
00D254 FFFFFFFF                 
00D258 FFFFFFFF         204                             DB 0xFF,0xFF,0xFF,0xFF,0xFF,0xFF,0xFF,0xFF       
00D25C FFFFFFFF                 
00D260 FFFFFFFF         205                             DB 0xFF,0xFF,0xFF,0xFF,0xFF,0xFF,0xFF,0xFF       
00D264 FFFFFFFF                 
00D268 FFFFFFFF         206                             DB 0xFF,0xFF,0xFF,0xFF,0xFF,0xFF,0xFF,0xFF       
00D26C FFFFFFFF                 
00D270 FFFFFFFF         207                             DB 0xFF,0xFF,0xFF,0xFF,0xFF,0xFF,0xFF,0xFF       
00D274 FFFFFFFF                 
00D278 00000000         208                             DB 0x00,0x00,0x00,0x00,0x00,0x00,0x00,0x00       
00D27C 00000000                 
                        209     
00D400                  210             CSEG    AT      0xD400
                        211         PUBLIC          FS_Calibration_Table
                        212     
00D400                  213     FS_Calibration_Table:
                        214     
                        215                             
00D400 01               216                             DB 0x01                                                         
                                                        
00D401 00               217                             DB 0x00                                                         
                                                
00D402 0000             218                             DW 0x0000                                        
00D404 01               219                             DB 0x01                                                         
                                                        
00D405 00               220                             DB 0x00                                                         
AX51 MACRO ASSEMBLER  FLASHTABLE                                                            03/10/20 10:49:36 PAGE     7

                                                
00D406 00               221                             DB 0x00                                          
00D407 01               222                             DB 0x01                                                         
                                                        
00D408 00               223                             DB 0x00                                                         
                                                
00D409 0000             224                             DW 0x0000                                        
00D40B 01               225                             DB 0x01                                                         
                                                        
00D40C 00               226                             DB 0x00                                                         
                                                
00D40D 0000             227                             DW 0x0000                                        
00D40F 01               228                             DB 0x01                                                         
                                                        
00D410 00               229                             DB 0x00                                                         
                                                
00D411 0000             230                             DW 0x0000                                        
00D413 01               231                             DB 0x01                                                         
                                                        
00D414 00               232                             DB 0x00                                                         
                                                
00D415 0000             233                             DW 0x0000                                        
00D417 01               234                             DB 0x01                                                         
                                                        
00D418 00               235                             DB 0x00                                                         
                                                
00D419 0000             236                             DW 0x0000                                        
00D41B 01               237                             DB 0x01                                                         
                                                        
00D41C 00               238                             DB 0x00                                                         
                                                
00D41D 0000             239                             DW 0x0000                                        
00D41F 01               240                             DB 0x01                                                         
                                                        
00D420 00               241                             DB 0x00                                                         
                                                
00D421 0000             242                             DW 0x0000                                        
00D423 01               243                             DB 0x01                                                         
                                                        
00D424 00               244                             DB 0x00                                                         
                                                
00D425 0000             245                             DW 0x0000                                        
00D427 01               246                             DB 0x01                                                         
                                                        
00D428 00               247                             DB 0x00                                                         
                                                
00D429 0000             248                             DW 0x0000                                        
00D42B 01               249                             DB 0x01                                                         
                                                        
00D42C 00               250                             DB 0x00                                                         
                                                
00D42D 0000             251                             DW 0x0000                                        
00D42F 01               252                             DB 0x01                                                         
                                                        
00D430 00               253                             DB 0x00                                                         
                                                
00D431 0000             254                             DW 0x0000                                        
00D433 01               255                             DB 0x01                                                         
                                                        
00D434 00               256                             DB 0x00                                                         
                                                
00D435 0000             257                             DW 0x0000                                        
00D437 0080             258                             DW 0x0080                                        
AX51 MACRO ASSEMBLER  FLASHTABLE                                                            03/10/20 10:49:36 PAGE     8

00D439 0100             259                             DW 0x0100                                        
00D43B 0080             260                             DW 0x0080                                        
00D43D 0100             261                             DW 0x0100                                        
00D43F 0080             262                             DW 0x0080                                        
00D441 0100             263                             DW 0x0100                                        
00D443 0080             264                             DW 0x0080                                        
00D445 0100             265                             DW 0x0100                                        
                        266     
00D447 46               267                             DB 0x46                                          
00D448 FC               268                             DB 0xFC                                          
                        269     
00D449 01000000         270                             DB 0x01,0x00,0x00,0x00,0x00,0x00,0x00            
00D44D 000000                   
00D450 FFFFFFFF         271                             DB 0xFF,0xFF,0xFF,0xFF,0xFF,0xFF,0xFF,0xFF       
00D454 FFFFFFFF                 
00D458 FFFFFFFF         272                             DB 0xFF,0xFF,0xFF,0xFF,0xFF,0xFF,0xFF,0xFF       
00D45C FFFFFFFF                 
00D460 FFFFFFFF         273                             DB 0xFF,0xFF,0xFF,0xFF,0xFF,0xFF,0xFF,0xFF       
00D464 FFFFFFFF                 
00D468 FFFFFFFF         274                             DB 0xFF,0xFF,0xFF,0xFF,0xFF,0xFF,0xFF,0xFF       
00D46C FFFFFFFF                 
00D470 FFFFFFFF         275                             DB 0xFF,0xFF,0xFF,0xFF,0xFF,0xFF,0xFF,0xFF       
00D474 FFFFFFFF                 
00D478 FFFFFFFF         276                             DB 0xFF,0xFF,0xFF,0xFF,0xFF,0xFF,0xFF,0xFF       
00D47C FFFFFFFF                 
                        277     
00D600                  278             CSEG    AT      0xD600
                        279         PUBLIC          FS_MSA_Option_Table
                        280     
00D600                  281     FS_MSA_Option_Table:
                        282                             
00D600 00               283                             DB 0x00                                                         
                                                        
00D601 01               284                             DB 0x01                                                         
                                                
00D602 01               285                             DB 0x01                                                         
                                                        
00D603 02               286                             DB 0x02                                                         
                                                
00D604 03               287                             DB 0x03                                                         
                                                
00D605 04               288                             DB 0x04                                                         
                                                        
00D606 05               289                             DB 0x05                                                         
                                                
00D607 08               290                             DB 0x08                                                         
                                                
00D608 0A               291                             DB 0x0A                                                         
                                                
00D609 0B               292                             DB 0x0B                                                         
                                                        
00D60A 0E               293                             DB 0x0E                                                         
                                                
00D60B 00               294                             DB 0x00                                                         
                                                
00D60C 00               295                             DB 0x00                                                         
                                                
00D60D 00               296                             DB 0x00                                                         
                                                
00D60E 00               297                             DB 0x00                                                         
                                                        
00D60F 00               298                             DB 0x00                                                         
                                                
AX51 MACRO ASSEMBLER  FLASHTABLE                                                            03/10/20 10:49:36 PAGE     9

00D610 02               299                             DB 0x02                                                         
                                                
00D611 03               300                             DB 0x03                                                         
                                                        
00D612 05               301                             DB 0x05                                                         
                                                
00D613 07               302                             DB 0x07                                                         
                                                
00D614 09               303                             DB 0x09                                                         
                                                        
00D615 0B               304                             DB 0x0B                                                         
                                                
00D616 0D               305                             DB 0x0D                                                         
                                                
00D617 0F               306                             DB 0x0F                                                         
                                                
00D618 00               307                             DB 0x00                                                         
                                                        
00D619 00               308                             DB 0x00                                                         
                                                
00D61A 00               309                             DB 0x00                                                         
                                                
00D61B 00               310                             DB 0x00                                                         
                                                
00D61C 00               311                             DB 0x00                                                         
                                                
00D61D 00               312                             DB 0x00                                                         
                                                        
00D61E 00               313                             DB 0x00                                                         
                                                
00D61F 00               314                             DB 0x00                                                         
                                                
00D620 00               315                             DB 0x00                                                         
                                                
00D621 1E               316                             DB 0x1E                                                         
                                                        
00D622 32               317                             DB 0x32                                                         
                                                
00D623 3C               318                             DB 0x3C                                                         
                                                
00D624 00               319                             DB 0x00                                                         
                                                        
00D625 00               320                             DB 0x00                                                         
                                                
00D626 00               321                             DB 0x00                                                         
                                                
00D627 00               322                             DB 0x00                                                         
                                                
00D628 00               323                             DB 0x00                                                         
                                                        
00D629 00               324                             DB 0x00                                                         
                                                
00D62A 00               325                             DB 0x00                                                         
                                                
00D62B 00               326                             DB 0x00                                                         
                                                
00D62C 00               327                             DB 0x00                                                         
                                                
00D62D 00               328                             DB 0x00                                                         
                                                        
00D62E 00               329                             DB 0x00                                                         
                                                
00D62F 00               330                             DB 0x00                                                         
AX51 MACRO ASSEMBLER  FLASHTABLE                                                            03/10/20 10:49:36 PAGE    10

                                                
00D630 476D4672         331                             DB 0x47,0x6D,0x46,0x72                           
00D634 00000000         332                             DB 0x00,0x00,0x00,0x00                           
00D638 00000000         333                             DB 0x00,0x00,0x00,0x00,0x00,0x00,0x00,0x00       
00D63C 00000000                 
00D640 00000000         334                             DB 0x00,0x00,0x00,0x00,0x00,0x00,0x00,0x00       
00D644 00000000                 
00D648 00000000         335                             DB 0x00,0x00,0x00,0x00,0x00,0x00,0x00,0x00       
00D64C 00000000                 
00D650 00000000         336                             DB 0x00,0x00,0x00,0x00,0x00,0x00,0x00,0x00       
00D654 00000000                 
00D658 00000000         337                             DB 0x00,0x00,0x00,0x00,0x00,0x00,0x00,0x00       
00D65C 00000000                 
00D660 00000000         338                             DB 0x00,0x00,0x00,0x00,0x00,0x00,0x00,0x00       
00D664 00000000                 
00D668 00000000         339                             DB 0x00,0x00,0x00,0x00,0x00,0x00,0x00,0x00       
00D66C 00000000                 
00D670 00000000         340                             DB 0x00,0x00,0x00,0x00,0x00,0x00,0x00,0x00       
00D674 00000000                 
00D678 00000000         341                             DB 0x00,0x00,0x00,0x00,0x00,0x00,0x00,0x00       
00D67C 00000000                 
                        342     
00D800                  343             CSEG    AT      0xD800
                        344         PUBLIC          FS_Bias_LUT_0_Table
                        345     
00D800                  346     FS_Bias_LUT_0_Table:
                        347                             
00D800 23232323         348                             DB 0x23,0x23,0x23,0x23,0x23,0x23,0x23,0x23       
00D804 23232323                 
00D808 23232323         349                             DB 0x23,0x23,0x23,0x23,0x23,0x23,0x23,0x23       
00D80C 23232323                 
00D810 23232323         350                             DB 0x23,0x23,0x23,0x23,0x23,0x23,0x23,0x23       
00D814 23232323                 
00D818 23232323         351                             DB 0x23,0x23,0x23,0x23,0x23,0x23,0x23,0x23       
00D81C 23232323                 
00D820 23232323         352                             DB 0x23,0x23,0x23,0x23,0x23,0x23,0x23,0x23       
00D824 23232323                 
00D828 23232323         353                             DB 0x23,0x23,0x23,0x23,0x23,0x23,0x23,0x23       
00D82C 23232323                 
00D830 23232323         354                             DB 0x23,0x23,0x23,0x23,0x23,0x23,0x23,0x23       
00D834 23232323                 
00D838 23232323         355                             DB 0x23,0x23,0x23,0x23,0x23,0x23,0x23,0x23       
00D83C 23232323                 
00D840 23232323         356                             DB 0x23,0x23,0x23,0x23,0x23,0x23,0x23,0x23       
00D844 23232323                 
00D848 23232323         357                             DB 0x23,0x23,0x23,0x23,0x23,0x23,0x23,0x23       
00D84C 23232323                 
00D850 23232323         358                             DB 0x23,0x23,0x23,0x23,0x23,0x23,0x23,0x23       
00D854 23232323                 
00D858 23232323         359                             DB 0x23,0x23,0x23,0x23,0x23,0x23,0x23,0x23       
00D85C 23232323                 
00D860 23232323         360                             DB 0x23,0x23,0x23,0x23,0x23,0x23,0x23,0x23       
00D864 23232323                 
00D868 23232323         361                             DB 0x23,0x23,0x23,0x23,0x23,0x23,0x23,0x23       
00D86C 23232323                 
00D870 23232323         362                             DB 0x23,0x23,0x23,0x23,0x23,0x23,0x23,0x23       
00D874 23232323                 
00D878 23232323         363                             DB 0x23,0x23,0x23,0x23,0x23,0x23,0x23,0x23       
00D87C 23232323                 
                        364     
                        365     
00DA00                  366             CSEG    AT      0xDA00
                        367         PUBLIC          FS_Mod_LUT_0_Table
AX51 MACRO ASSEMBLER  FLASHTABLE                                                            03/10/20 10:49:36 PAGE    11

                        368     
00DA00                  369     FS_Mod_LUT_0_Table:
                        370                             
00DA00 32323232         371                             DB 0x32,0x32,0x32,0x32,0x32,0x32,0x32,0x32       
00DA04 32323232                 
00DA08 32323232         372                             DB 0x32,0x32,0x32,0x32,0x32,0x32,0x32,0x32       
00DA0C 32323232                 
00DA10 32323232         373                             DB 0x32,0x32,0x32,0x32,0x32,0x32,0x32,0x32       
00DA14 32323232                 
00DA18 32323232         374                             DB 0x32,0x32,0x32,0x32,0x32,0x32,0x32,0x32       
00DA1C 32323232                 
00DA20 32323232         375                             DB 0x32,0x32,0x32,0x32,0x32,0x32,0x32,0x32       
00DA24 32323232                 
00DA28 32323232         376                             DB 0x32,0x32,0x32,0x32,0x32,0x32,0x32,0x32       
00DA2C 32323232                 
00DA30 32323232         377                             DB 0x32,0x32,0x32,0x32,0x32,0x32,0x32,0x32       
00DA34 32323232                 
00DA38 32323232         378                             DB 0x32,0x32,0x32,0x32,0x32,0x32,0x32,0x32       
00DA3C 32323232                 
00DA40 32323232         379                             DB 0x32,0x32,0x32,0x32,0x32,0x32,0x32,0x32       
00DA44 32323232                 
00DA48 32323232         380                             DB 0x32,0x32,0x32,0x32,0x32,0x32,0x32,0x32       
00DA4C 32323232                 
00DA50 32323232         381                             DB 0x32,0x32,0x32,0x32,0x32,0x32,0x32,0x32       
00DA54 32323232                 
00DA58 32323232         382                             DB 0x32,0x32,0x32,0x32,0x32,0x32,0x32,0x32       
00DA5C 32323232                 
00DA60 32323232         383                             DB 0x32,0x32,0x32,0x32,0x32,0x32,0x32,0x32       
00DA64 32323232                 
00DA68 32323232         384                             DB 0x32,0x32,0x32,0x32,0x32,0x32,0x32,0x32       
00DA6C 32323232                 
00DA70 32323232         385                             DB 0x32,0x32,0x32,0x32,0x32,0x32,0x32,0x32       
00DA74 32323232                 
00DA78 32323232         386                             DB 0x32,0x32,0x32,0x32,0x32,0x32,0x32,0x32       
00DA7C 32323232                 
                        387     
                        388         PUBLIC          FS_BL_CS_CK_Table
00F800                  389             CSEG    AT      0xF800
00F800                  390     FS_BL_CS_CK_Table:
                        391     
00F800 01               392                             DB 0x01                                          
00F801 00000000         393                             DB 0x00,0x00,0x00,0x00,0x00,0x00,0x00            
00F805 000000                   
00F808 FFFFFFFF         394                             DB 0xFF,0xFF,0xFF,0xFF,0xFF,0xFF,0xFF,0xFF       
00F80C FFFFFFFF                 
                        395                     END
AX51 MACRO ASSEMBLER  FLASHTABLE                                                            03/10/20 10:49:36 PAGE    12

SYMBOL TABLE LISTING
------ ----- -------


N A M E               T Y P E  V A L U E     ATTRIBUTES

FS_37644_TABLE . . .  C  ADDR  D200H     R   SEG=?CO?FLASHTABLE?4
FS_37645_TABLE . . .  C  ADDR  D000H     R   SEG=?CO?FLASHTABLE?3
FS_A0_TABLE. . . . .  C  ADDR  C800H     R   SEG=?CO?FLASHTABLE?1
FS_A2_TABLE. . . . .  C  ADDR  CA00H     R   SEG=?CO?FLASHTABLE?2
FS_BIAS_LUT_0_TABLE.  C  ADDR  D800H     R   SEG=?CO?FLASHTABLE?7
FS_BL_CS_CK_TABLE. .  C  ADDR  F800H     R   SEG=?CO?FLASHTABLE?9
FS_CALIBRATION_TABLE  C  ADDR  D400H     R   SEG=?CO?FLASHTABLE?5
FS_MOD_LUT_0_TABLE .  C  ADDR  DA00H     R   SEG=?CO?FLASHTABLE?8
FS_MSA_OPTION_TABLE.  C  ADDR  D600H     R   SEG=?CO?FLASHTABLE?6


REGISTER BANK(S) USED: 0 


ASSEMBLY COMPLETE.  0 WARNING(S), 0 ERROR(S).
